{
  "contractName": "ChainCloud",
  "abi": [
    {
      "constant": true,
      "inputs": [],
      "name": "uptime",
      "outputs": [
        {
          "name": "",
          "type": "uint256"
        }
      ],
      "payable": false,
      "stateMutability": "view",
      "type": "function"
    },
    {
      "inputs": [],
      "payable": false,
      "stateMutability": "nonpayable",
      "type": "constructor"
    },
    {
      "anonymous": false,
      "inputs": [
        {
          "indexed": false,
          "name": "id",
          "type": "bytes32"
        }
      ],
      "name": "ChainlinkRequested",
      "type": "event"
    },
    {
      "anonymous": false,
      "inputs": [
        {
          "indexed": false,
          "name": "id",
          "type": "bytes32"
        }
      ],
      "name": "ChainlinkFulfilled",
      "type": "event"
    },
    {
      "anonymous": false,
      "inputs": [
        {
          "indexed": false,
          "name": "id",
          "type": "bytes32"
        }
      ],
      "name": "ChainlinkCancelled",
      "type": "event"
    },
    {
      "constant": false,
      "inputs": [],
      "name": "updateUptime",
      "outputs": [],
      "payable": false,
      "stateMutability": "nonpayable",
      "type": "function"
    },
    {
      "constant": false,
      "inputs": [
        {
          "name": "_externalId",
          "type": "bytes32"
        },
        {
          "name": "_uptime",
          "type": "uint256"
        }
      ],
      "name": "report",
      "outputs": [],
      "payable": false,
      "stateMutability": "nonpayable",
      "type": "function"
    },
    {
      "constant": false,
      "inputs": [
        {
          "name": "b",
          "type": "bytes"
        }
      ],
      "name": "bytesToUint",
      "outputs": [
        {
          "name": "",
          "type": "uint256"
        }
      ],
      "payable": false,
      "stateMutability": "nonpayable",
      "type": "function"
    },
    {
      "constant": true,
      "inputs": [
        {
          "name": "_query",
          "type": "bytes"
        },
        {
          "name": "_timeout",
          "type": "uint256"
        }
      ],
      "name": "isFinalized",
      "outputs": [
        {
          "name": "",
          "type": "bool"
        }
      ],
      "payable": false,
      "stateMutability": "view",
      "type": "function"
    },
    {
      "constant": true,
      "inputs": [
        {
          "name": "_query",
          "type": "bytes"
        }
      ],
      "name": "queryResult",
      "outputs": [
        {
          "name": "",
          "type": "bool"
        }
      ],
      "payable": false,
      "stateMutability": "view",
      "type": "function"
    }
  ],
  "bytecode": "0x6080604052600160025534801561001557600080fd5b5060016006556100417320fe562d797a42dcb3399062ae9546cd06f6328064010000000061006c810204565b6100677318170370bcec331f31d41b9b83de772f5bd47d8264010000000061008e810204565b6100b0565b60008054600160a060020a031916600160a060020a0392909216919091179055565b60018054600160a060020a031916600160a060020a0392909216919091179055565b610f48806100bf6000396000f3006080604052600436106100775763ffffffff7c010000000000000000000000000000000000000000000000000000000060003504166302d06d05811461007c57806325f5d1db146100e757806356962844146100fc578063754d7f2814610119578063bf4cd39d14610186578063d2121c2b1461019b575b600080fd5b34801561008857600080fd5b506040805160206004803580820135601f81018490048402850184019095528484526100d59436949293602493928401919081908401838280828437509497506101f69650505050505050565b60408051918252519081900360200190f35b3480156100f357600080fd5b506100d561023d565b34801561010857600080fd5b50610117600435602435610243565b005b34801561012557600080fd5b506040805160206004803580820135601f81018490048402850184019095528484526101729436949293602493928401919081908401838280828437509497506103589650505050505050565b604080519115158252519081900360200190f35b34801561019257600080fd5b506101176103a0565b3480156101a757600080fd5b506040805160206004803580820135601f810184900484028501840190955284845261017294369492936024939284019190819084018382808284375094975050933594506105929350505050565b600080805b835181101561023657806101000a848281518110151561021757fe5b016020015160f860020a908190048102040291909101906001016101fb565b5092915050565b60065481565b6000828152600360205260409020548290600160a060020a031633146102f057604080517f08c379a000000000000000000000000000000000000000000000000000000000815260206004820152602860248201527f736f75726365206d75737420626520746865206f7261636c65206f662074686560448201527f2072657175657374000000000000000000000000000000000000000000000000606482015290519081900360840190fd5b6006829055600081815260036020908152604091829020805473ffffffffffffffffffffffffffffffffffffffff19169055815183815291517f7cc135e0cebb02c3480ae5d74d377283180a2601f8f644edf7987b009316c63a9281900390910190a1505050565b805160009060011461036957600080fd5b81600081518110151561037857fe5b90602001015160f860020a900460f860020a0260f860020a900460ff16600654149050919050565b6103a8610ecf565b606061040a7f3236396433646435653639333431346562303966643833663866313433373937306040805190810160405280601781526020017f7265706f727428627974657333322c75696e74323536290000000000000000008152506105c9565b91506104b26040805190810160405280600381526020017f75726c0000000000000000000000000000000000000000000000000000000000815250606060405190810160405280603381526020017f68747470733a2f2f636861696e636c6f75642d61333834622e6669726562617381526020017f65696f2e636f6d2f6865616c74682e6a736f6e00000000000000000000000000815250846105f49092919063ffffffff16565b60408051600180825281830190925290816020015b60608152602001906001900390816104c75790505090506040805190810160405280600781526020017f72756e6e696e670000000000000000000000000000000000000000000000000081525081600081518110151561052357fe5b9060200190602002018190525061057a6040805190810160405280600481526020017f7061746800000000000000000000000000000000000000000000000000000000815250828461061e9092919063ffffffff16565b61058d826105886001610697565b6106b7565b505050565b60008060088451111515156105a657600080fd5b6105af846101f6565b9050600654600014806105c157508042115b949350505050565b6105d1610ecf565b6105d9610ecf565b6105eb8186868663ffffffff61091716565b95945050505050565b6080830151610609908363ffffffff6109df16565b608083015161058d908263ffffffff6109df16565b6080830151600090610636908463ffffffff6109df16565b61064384608001516109fc565b5060005b81518110156106845761067c828281518110151561066157fe5b6020908102909101015160808601519063ffffffff6109df16565b600101610647565b6106918460800151610a0a565b50505050565b60006106b182670de0b6b3a764000063ffffffff610a1516565b92915050565b6002805460608401819052600101905560006106d283610a3e565b600154606084018051600090815260036020908152604091829020805473ffffffffffffffffffffffffffffffffffffffff1916600160a060020a03909516949094179093559051815190815290517fb5e6e01e79f91267dc17b4e6314d5d4d03593d2ceee0fbb452b750bd70ea5af9929181900390910190a160005460018054600160a060020a0392831692634000aea092911690859061077b90889063ffffffff610a4b16565b6040518463ffffffff167c01000000000000000000000000000000000000000000000000000000000281526004018084600160a060020a0316600160a060020a0316815260200183815260200180602001828103825283818151815260200191508051906020019080838360005b838110156108015781810151838201526020016107e9565b50505050905090810190601f16801561082e5780820380516001836020036101000a031916815260200191505b50945050505050602060405180830381600087803b15801561084f57600080fd5b505af1158015610863573d6000803e3d6000fd5b505050506040513d602081101561087957600080fd5b5051151561090e57604080517f08c379a000000000000000000000000000000000000000000000000000000000815260206004820152602360248201527f756e61626c6520746f207472616e73666572416e6443616c6c20746f206f726160448201527f636c650000000000000000000000000000000000000000000000000000000000606482015290519081900360840190fd5b50506060015190565b61091f610ecf565b61092e85608001516080610c23565b838552600160a060020a038316602080870191909152604051835184928291908401908083835b602083106109745780518252601f199092019160209182019101610955565b5181516020939093036101000a6000190180199091169216919091179052604080519190930181900390207bffffffffffffffffffffffffffffffffffffffffffffffffffffffff19169189019190915250505060808501516109d690610c51565b50929392505050565b6109ec8260038351610c5c565b61058d828263ffffffff610d5a16565b610a07816004610df7565b50565b610a07816007610df7565b6000821515610a26575060006106b1565b50818102818382811515610a3657fe5b04146106b157fe5b610a078160800151610a0a565b604080517f726571756573744461746128616464726573732c75696e743235362c75696e7481527f3235362c627974657333322c616464726573732c6279746573342c62797465736020808301919091527f33322c62797465732900000000000000000000000000000000000000000000008284015282519182900360490182208551868301519487015160608881015160808a01515160006024890181815260448a0182905260648a018c905260848a01879052600160a060020a038b1660a48b01527bffffffffffffffffffffffffffffffffffffffffffffffffffffffff19861660c48b015260e48a018490526101006101048b0190815283516101248c01528351959b989a92998a998e999890979096959461014401918501908083838e5b83811015610b86578181015183820152602001610b6e565b50505050905090810190601f168015610bb35780820380516001836020036101000a031916815260200191505b5060408051601f198184030181529190526020810180517bffffffffffffffffffffffffffffffffffffffffffffffffffffffff167bffffffffffffffffffffffffffffffffffffffffffffffffffffffff19909d169c909c17909b525098995050505050505050505092915050565b806020810615610c365760208106602003015b60208301819052604080519384905260008452920190915250565b610a07816005610df7565b60178111610c7d57610c788360ff848116602002168317610e14565b61058d565b60ff8111610cb657610c9e836018602060ff8616021763ffffffff610e1416565b610cb08382600163ffffffff610e4d16565b5061058d565b61ffff8111610cea57610cd8836019602060ff8616021763ffffffff610e1416565b610cb08382600263ffffffff610e4d16565b63ffffffff8111610d2057610d0e83601a602060ff8616021763ffffffff610e1416565b610cb08382600463ffffffff610e4d16565b67ffffffffffffffff811161058d57610d4883601b602060ff8616021763ffffffff610e1416565b6106918382600863ffffffff610e4d16565b610d62610f04565b60008060008086602001518760000151518751011115610d9757610d9787610d8f89602001518951610ea2565b600202610eb9565b855187518051808301825201602090810195508701935091505b60208210610dd3578251845260209384019390920191601f1990910190610db1565b50905182516020929092036101000a60001901801990911691161790525090919050565b610e1082601f602060ff8516021763ffffffff610e1416565b5050565b60208201518251516001011115610e3657610e36828360200151600202610eb9565b815180516020818301018381535060010190525050565b610e55610f04565b6000846020015185600001515184011115610e7c57610e7c85610d8f876020015186610ea2565b5050825180518082018301805160001961010086900a0119169094179093529101905290565b600081831115610eb35750816106b1565b50919050565b8151610ec58383610c23565b6106918382610d5a565b6040805160c081018252600080825260208201819052918101829052606081019190915260808101610eff610f04565b905290565b604080518082019091526060815260006020820152905600a165627a7a72305820afbde913985894f3cc171916d8b0bf1e569e2d6aa5e711da0d40b76798eb82d30029",
  "source": "pragma solidity ^0.4.24;\n\nimport \"chainlink/solidity/contracts/Chainlinked.sol\";\n\ncontract ChainCloud is Chainlinked {\n  uint256 public uptime;\n\n  address constant ROPSTEN_LINK_ADDRESS = 0x20fE562d797A42Dcb3399062AE9546cd06f63280;\n  address constant ROPSTEN_ORACLE_ADDRESS = 0x18170370BceC331F31d41B9b83DE772F5Bd47D82;\n  bytes32 constant JOB_ID = bytes32(\"269d3dd5e693414eb09fd83f8f143797\");\n\n  constructor(){\n    uptime = 1;\n    setLinkToken(ROPSTEN_LINK_ADDRESS);\n    setOracle(ROPSTEN_ORACLE_ADDRESS);\n  }\n\n  function updateUptime() public {\n    ChainlinkLib.Run memory run = newRun(JOB_ID, this, \"report(bytes32,uint256)\");\n    run.add(\"url\", \"https://chaincloud-a384b.firebaseio.com/health.json\");\n    string[] memory path = new string[](1);\n    path[0] = \"running\";\n    run.addStringArray(\"path\", path);\n    chainlinkRequest(run, LINK(1));\n\n  }\n\n  function report(bytes32 _externalId, uint256 _uptime)\n    public\n    checkChainlinkFulfillment(_externalId)\n  {\n    uptime = _uptime;\n  }\n\n  function bytesToUint(bytes b) public returns (uint256){\n    uint256 number;\n    for(uint i=0;i<b.length;i++){\n      number = number + uint(b[i])*(256 ** i);\n    }\n    return number;\n  }\n\n  function isFinalized(bytes _query, uint _timeout) public view returns (bool) {\n    require(_query.length <= 8);\n    uint256 time = bytesToUint(_query);\n    return uptime == 0 || now > uint(time);\n  }\n\n  function queryResult(bytes _query) public view returns (bool) {\n    require(_query.length == 1);\n    return uptime == uint8(_query[0]);\n  }\n}\n",
  "sourcePath": "/Users/zhuxuefeng/mygit/ChainCloud/oracle/contracts/ChainCloud.sol",
  "compiler": {
    "name": "solc",
    "version": "0.4.24+commit.e67f0147.Emscripten.clang"
  },
  "schemaVersion": "2.0.1",
  "updatedAt": "2018-10-06T17:38:34.916Z"
}