{
  "contractName": "Oracle",
  "abi": [
    {
      "constant": false,
      "inputs": [],
      "name": "renounceOwnership",
      "outputs": [],
      "payable": false,
      "stateMutability": "nonpayable",
      "type": "function"
    },
    {
      "constant": true,
      "inputs": [],
      "name": "owner",
      "outputs": [
        {
          "name": "",
          "type": "address"
        }
      ],
      "payable": false,
      "stateMutability": "view",
      "type": "function"
    },
    {
      "constant": false,
      "inputs": [
        {
          "name": "_newOwner",
          "type": "address"
        }
      ],
      "name": "transferOwnership",
      "outputs": [],
      "payable": false,
      "stateMutability": "nonpayable",
      "type": "function"
    },
    {
      "inputs": [
        {
          "name": "_link",
          "type": "address"
        }
      ],
      "payable": false,
      "stateMutability": "nonpayable",
      "type": "constructor"
    },
    {
      "anonymous": false,
      "inputs": [
        {
          "indexed": true,
          "name": "specId",
          "type": "bytes32"
        },
        {
          "indexed": true,
          "name": "requester",
          "type": "address"
        },
        {
          "indexed": true,
          "name": "amount",
          "type": "uint256"
        },
        {
          "indexed": false,
          "name": "internalId",
          "type": "uint256"
        },
        {
          "indexed": false,
          "name": "version",
          "type": "uint256"
        },
        {
          "indexed": false,
          "name": "data",
          "type": "bytes"
        }
      ],
      "name": "RunRequest",
      "type": "event"
    },
    {
      "anonymous": false,
      "inputs": [
        {
          "indexed": false,
          "name": "internalId",
          "type": "uint256"
        }
      ],
      "name": "CancelRequest",
      "type": "event"
    },
    {
      "anonymous": false,
      "inputs": [
        {
          "indexed": true,
          "name": "previousOwner",
          "type": "address"
        }
      ],
      "name": "OwnershipRenounced",
      "type": "event"
    },
    {
      "anonymous": false,
      "inputs": [
        {
          "indexed": true,
          "name": "previousOwner",
          "type": "address"
        },
        {
          "indexed": true,
          "name": "newOwner",
          "type": "address"
        }
      ],
      "name": "OwnershipTransferred",
      "type": "event"
    },
    {
      "constant": false,
      "inputs": [
        {
          "name": "_sender",
          "type": "address"
        },
        {
          "name": "_amount",
          "type": "uint256"
        },
        {
          "name": "_data",
          "type": "bytes"
        }
      ],
      "name": "onTokenTransfer",
      "outputs": [],
      "payable": false,
      "stateMutability": "nonpayable",
      "type": "function"
    },
    {
      "constant": false,
      "inputs": [
        {
          "name": "_sender",
          "type": "address"
        },
        {
          "name": "_amount",
          "type": "uint256"
        },
        {
          "name": "_version",
          "type": "uint256"
        },
        {
          "name": "_specId",
          "type": "bytes32"
        },
        {
          "name": "_callbackAddress",
          "type": "address"
        },
        {
          "name": "_callbackFunctionId",
          "type": "bytes4"
        },
        {
          "name": "_externalId",
          "type": "bytes32"
        },
        {
          "name": "_data",
          "type": "bytes"
        }
      ],
      "name": "requestData",
      "outputs": [],
      "payable": false,
      "stateMutability": "nonpayable",
      "type": "function"
    },
    {
      "constant": false,
      "inputs": [
        {
          "name": "_internalId",
          "type": "uint256"
        },
        {
          "name": "_data",
          "type": "bytes32"
        }
      ],
      "name": "fulfillData",
      "outputs": [],
      "payable": false,
      "stateMutability": "nonpayable",
      "type": "function"
    },
    {
      "constant": false,
      "inputs": [
        {
          "name": "_recipient",
          "type": "address"
        },
        {
          "name": "_amount",
          "type": "uint256"
        }
      ],
      "name": "withdraw",
      "outputs": [],
      "payable": false,
      "stateMutability": "nonpayable",
      "type": "function"
    },
    {
      "constant": false,
      "inputs": [
        {
          "name": "_externalId",
          "type": "bytes32"
        }
      ],
      "name": "cancel",
      "outputs": [],
      "payable": false,
      "stateMutability": "nonpayable",
      "type": "function"
    }
  ],
  "bytecode": "0x6080604052600160025534801561001557600080fd5b50604051602080610fe2833981016040525160008054600160a060020a0319908116331790915560018054600160a060020a0390931692909116919091179055610f7e806100646000396000f3006080604052600436106100745763ffffffff60e060020a6000350416632798cecd8114610079578063715018a61461010c57806376005c26146101215780638da5cb5b1461013c578063a4c0ed361461016d578063c4d252f5146101d6578063f2fde38b146101ee578063f3fef3a31461020f575b600080fd5b34801561008557600080fd5b50604080516020601f60e43560048181013592830184900484028501840190955281845261010a94600160a060020a0381358116956024803596604435966064359660843590951695600160e060020a031960a435169560c4359536959294610104949193929092019181908401838280828437509497506102339650505050505050565b005b34801561011857600080fd5b5061010a6104fb565b34801561012d57600080fd5b5061010a600435602435610567565b34801561014857600080fd5b50610151610721565b60408051600160a060020a039092168252519081900360200190f35b34801561017957600080fd5b50604080516020600460443581810135601f810184900484028501840190955284845261010a948235600160a060020a03169460248035953695946064949201919081908401838280828437509497506107309650505050505050565b3480156101e257600080fd5b5061010a60043561096b565b3480156101fa57600080fd5b5061010a600160a060020a0360043516610ce2565b34801561021b57600080fd5b5061010a600160a060020a0360043516602435610d05565b600154600090600160a060020a03163314610298576040805160e560020a62461bcd02815260206004820152601360248201527f4d75737420757365204c494e4b20746f6b656e00000000000000000000000000604482015290519081900360640190fd5b604080516c01000000000000000000000000600160a060020a038c1602602080830191909152603480830187905283518084039091018152605490920192839052815191929182918401908083835b602083106103065780518252601f1990920191602091820191016102e7565b51815160209384036101000a60001901801990921691161790526040805192909401829003822060a0830185528983529082018e9052600160a060020a038b1693820193909352600160e060020a031989166060820152919450909250506080820190506103764261012c610e63565b67ffffffffffffffff1681525060036000838152602001908152602001600020600082015181600001906000191690556020820151816001015560408201518160020160006101000a815481600160a060020a030219169083600160a060020a0316021790555060608201518160020160146101000a81548163ffffffff021916908360e060020a9004021790555060808201518160020160186101000a81548167ffffffffffffffff021916908367ffffffffffffffff1602179055509050508789600160a060020a031687600019167f6d6db1f8fe19d95b1d0fa6a4bce7bb24fbf84597b35a33ff95521fac453c1529848b876040518084815260200183815260200180602001828103825283818151815260200191508051906020019080838360005b838110156104b457818101518382015260200161049c565b50505050905090810190601f1680156104e15780820380516001836020036101000a031916815260200191505b5094505050505060405180910390a4505050505050505050565b600054600160a060020a0316331461051257600080fd5b60008054604051600160a060020a03909116917ff8df31144d9c2f0f6b59d69b8b98abd5459d07f2742c4df920b25aae33c6482091a26000805473ffffffffffffffffffffffffffffffffffffffff19169055565b61056f610f05565b600054600160a060020a0316331461058657600080fd5b6000838152600360205260409020600201548390600160a060020a031615156105f9576040805160e560020a62461bcd02815260206004820152601c60248201527f4d757374206861766520612076616c696420696e7465726e616c496400000000604482015290519081900360640190fd5b600084815260036020908152604091829020825160a081018452815481526001820154928101839052600291820154600160a060020a0381169482019490945274010000000000000000000000000000000000000000840460e060020a02600160e060020a0319166060820152780100000000000000000000000000000000000000000000000090930467ffffffffffffffff166080840152549193506106a09190610e63565b6002908155600085815260036020526040808220828155600181018390559092018190558382015160608501518551845160e060020a9283900463ffffffff811690930281526004810191909152602481018890529351600160a060020a03929092169390926044808301939192829003018183875af15050505050505050565b600054600160a060020a031681565b600154600160a060020a03163314610792576040805160e560020a62461bcd02815260206004820152601360248201527f4d75737420757365204c494e4b20746f6b656e00000000000000000000000000604482015290519081900360640190fd5b61079a610f33565b600460848237604080517f726571756573744461746128616464726573732c75696e743235362c75696e7481527f3235362c627974657333322c616464726573732c6279746573342c627974657360208201527f33322c6279746573290000000000000000000000000000000000000000000000818301529051908190036049019020600160e060020a0319168160006020020151600160e060020a0319161461088e576040805160e560020a62461bcd02815260206004820152601e60248201527f4d757374207573652077686974656c69737465642066756e6374696f6e730000604482015290519081900360640190fd5b83602483015282604483015230600160a060020a03168260405180828051906020019080838360005b838110156108cf5781810151838201526020016108b7565b50505050905090810190601f1680156108fc5780820380516001836020036101000a031916815260200191505b50915050600060405180830381855af49150501515610965576040805160e560020a62461bcd02815260206004820152601860248201527f556e61626c6520746f2063726561746520726571756573740000000000000000604482015290519081900360640190fd5b50505050565b6000610975610f05565b604080516c010000000000000000000000003302602080830191909152603480830187905283518084039091018152605490920192839052815191929182918401908083835b602083106109da5780518252601f1990920191602091820191016109bb565b51815160209384036101000a60001901801990921691161790526040805192909401829003909120600081815260039092529290206002015491955050600160a060020a031633149150610a7a9050576040805160e560020a62461bcd02815260206004820152601d60248201527f4d7573742062652063616c6c65642066726f6d20726571756573746572000000604482015290519081900360640190fd5b60008281526003602052604090206002015442780100000000000000000000000000000000000000000000000090910467ffffffffffffffff161115610b0a576040805160e560020a62461bcd02815260206004820152601660248201527f52657175657374206973206e6f74206578706972656400000000000000000000604482015290519081900360640190fd5b506000818152600360209081526040808320815160a08101835281548152600180830154828601819052600290930154600160a060020a0380821684870181905274010000000000000000000000000000000000000000830460e060020a02600160e060020a0319166060860152780100000000000000000000000000000000000000000000000090920467ffffffffffffffff166080850152915485517fa9059cbb000000000000000000000000000000000000000000000000000000008152600481019290925260248201949094529351919592169363a9059cbb93604480820194929392918390030190829087803b158015610c0857600080fd5b505af1158015610c1c573d6000803e3d6000fd5b505050506040513d6020811015610c3257600080fd5b50511515610c8a576040805160e560020a62461bcd02815260206004820152601260248201527f556e61626c6520746f207472616e736665720000000000000000000000000000604482015290519081900360640190fd5b60008281526003602090815260408083208381556001810184905560020192909255815184815291517f964b7303b4bad5535d8a5957f8004a3b1660c69e28bcf4acaf8722a98093ab269281900390910190a1505050565b600054600160a060020a03163314610cf957600080fd5b610d0281610e76565b50565b600054600160a060020a03163314610d1c57600080fd5b80610d2e81600163ffffffff610e6316565b6002541015610dad576040805160e560020a62461bcd02815260206004820152603560248201527f416d6f756e74207265717565737465642069732067726561746572207468616e60448201527f20776974686472617761626c652062616c616e63650000000000000000000000606482015290519081900360840190fd5b600254610dc0908363ffffffff610ef316565b600255600154604080517fa9059cbb000000000000000000000000000000000000000000000000000000008152600160a060020a038681166004830152602482018690529151919092169163a9059cbb9160448083019260209291908290030181600087803b158015610e3257600080fd5b505af1158015610e46573d6000803e3d6000fd5b505050506040513d6020811015610e5c57600080fd5b5050505050565b81810182811015610e7057fe5b92915050565b600160a060020a0381161515610e8b57600080fd5b60008054604051600160a060020a03808516939216917f8be0079c531659141344cd1fd0a4f28419497f9722a3daafe3b4186f6b6457e091a36000805473ffffffffffffffffffffffffffffffffffffffff1916600160a060020a0392909216919091179055565b600082821115610eff57fe5b50900390565b6040805160a08101825260008082526020820181905291810182905260608101829052608081019190915290565b60206040519081016040528060019060208202803883395091929150505600a165627a7a723058203b9763c80d9e04fe0b592cf5e841f6c579076c554c6410bf161846a25a32b19d0029",
  "source": "pragma solidity ^0.4.24;\n\nimport \"openzeppelin-solidity/contracts/ownership/Ownable.sol\";\nimport \"openzeppelin-solidity/contracts/math/SafeMath.sol\";\nimport \"link_token/contracts/LinkToken.sol\";\n\ncontract Oracle is Ownable {\n  using SafeMath for uint256;\n\n  LinkToken internal LINK;\n\n  struct Callback {\n    bytes32 externalId;\n    uint256 amount;\n    address addr;\n    bytes4 functionId;\n    uint64 cancelExpiration;\n  }\n\n  // We initialize fields to 1 instead of 0 so that the first invocation\n  // does not cost more gas.\n  uint256 constant private oneForConsistentGasCost = 1;\n  uint256 private withdrawableWei = oneForConsistentGasCost;\n\n  mapping(uint256 => Callback) private callbacks;\n\n  event RunRequest(\n    bytes32 indexed specId,\n    address indexed requester,\n    uint256 indexed amount,\n    uint256 internalId,\n    uint256 version,\n    bytes data\n  );\n\n  event CancelRequest(\n    uint256 internalId\n  );\n\n  constructor(address _link) Ownable() public {\n    LINK = LinkToken(_link);\n  }\n\n  function onTokenTransfer(\n    address _sender,\n    uint256 _amount,\n    bytes _data\n  )\n    public\n    onlyLINK\n    permittedFunctionsForLINK\n  {\n    assembly {\n      // solium-disable-next-line security/no-low-level-calls\n      mstore(add(_data, 36), _sender) // ensure correct sender is passed\n      // solium-disable-next-line security/no-low-level-calls\n      mstore(add(_data, 68), _amount)    // ensure correct amount is passed\n    }\n    // solium-disable-next-line security/no-low-level-calls\n    require(address(this).delegatecall(_data), \"Unable to create request\"); // calls requestData\n  }\n\n  function requestData(\n    address _sender,\n    uint256 _amount,\n    uint256 _version,\n    bytes32 _specId,\n    address _callbackAddress,\n    bytes4 _callbackFunctionId,\n    bytes32 _externalId,\n    bytes _data\n  )\n    public\n    onlyLINK\n  {\n    uint256 internalId = uint256(keccak256(abi.encodePacked(_sender, _externalId)));\n    callbacks[internalId] = Callback(\n      _externalId,\n      _amount,\n      _callbackAddress,\n      _callbackFunctionId,\n      uint64(now.add(5 minutes)));\n    emit RunRequest(\n      _specId,\n      _sender,\n      _amount,\n      internalId,\n      _version,\n      _data);\n  }\n\n  function fulfillData(\n    uint256 _internalId,\n    bytes32 _data\n  )\n    public\n    onlyOwner\n    hasInternalId(_internalId)\n  {\n    Callback memory callback = callbacks[_internalId];\n    withdrawableWei = withdrawableWei.add(callback.amount);\n    delete callbacks[_internalId];\n    // All updates to the oracle's fulfillment should come before calling the\n    // callback(addr+functionId) as it is untrusted.\n    // See: https://solidity.readthedocs.io/en/develop/security-considerations.html#use-the-checks-effects-interactions-pattern\n    callback.addr.call(callback.functionId, callback.externalId, _data); // solium-disable-line security/no-low-level-calls\n  }\n\n  function withdraw(address _recipient, uint256 _amount)\n    public\n    onlyOwner\n    hasAvailableFunds(_amount)\n  {\n    withdrawableWei = withdrawableWei.sub(_amount);\n    LINK.transfer(_recipient, _amount);\n  }\n\n  function cancel(bytes32 _externalId)\n    public\n  {\n    uint256 internalId = uint256(keccak256(abi.encodePacked(msg.sender, _externalId)));\n    require(msg.sender == callbacks[internalId].addr, \"Must be called from requester\");\n    require(callbacks[internalId].cancelExpiration <= now, \"Request is not expired\");\n    Callback memory cb = callbacks[internalId];\n    require(LINK.transfer(cb.addr, cb.amount), \"Unable to transfer\");\n    delete callbacks[internalId];\n    emit CancelRequest(internalId);\n  }\n\n  // MODIFIERS\n\n  modifier hasAvailableFunds(uint256 _amount) {\n    require(withdrawableWei >= _amount.add(oneForConsistentGasCost), \"Amount requested is greater than withdrawable balance\");\n    _;\n  }\n\n  modifier hasInternalId(uint256 _internalId) {\n    require(callbacks[_internalId].addr != address(0), \"Must have a valid internalId\");\n    _;\n  }\n\n  modifier onlyLINK() {\n    require(msg.sender == address(LINK), \"Must use LINK token\");\n    _;\n  }\n\n  bytes4 constant private permittedFunc = bytes4(keccak256(\"requestData(address,uint256,uint256,bytes32,address,bytes4,bytes32,bytes)\"));\n\n  modifier permittedFunctionsForLINK() {\n    bytes4[1] memory funcSelector;\n    assembly {\n      // solium-disable-next-line security/no-low-level-calls\n      calldatacopy(funcSelector, 132, 4) // grab function selector from calldata\n    }\n    require(funcSelector[0] == permittedFunc, \"Must use whitelisted functions\");\n    _;\n  }\n\n}\n",
  "sourcePath": "chainlink/solidity/contracts/Oracle.sol",
  "compiler": {
    "name": "solc",
    "version": "0.4.24+commit.e67f0147.Emscripten.clang"
  },
  "schemaVersion": "2.0.1",
  "updatedAt": "2018-10-06T17:38:34.922Z"
}